{
  "abi": [
    {
      "inputs": [],
      "stateMutability": "nonpayable",
      "type": "constructor"
    },
    {
      "anonymous": false,
      "inputs": [
        {
          "indexed": true,
          "internalType": "address",
          "name": "distributor",
          "type": "address"
        },
        {
          "indexed": false,
          "internalType": "string",
          "name": "incentiveId",
          "type": "string"
        }
      ],
      "name": "DistributorSetup",
      "type": "event"
    },
    {
      "inputs": [
        {
          "internalType": "address",
          "name": "_tokenAddress",
          "type": "address"
        },
        {
          "internalType": "bytes32",
          "name": "_merketRoot",
          "type": "bytes32"
        },
        {
          "internalType": "string",
          "name": "_incentiveId",
          "type": "string"
        }
      ],
      "name": "createDistributor",
      "outputs": [
        {
          "internalType": "address",
          "name": "distributorAddress",
          "type": "address"
        }
      ],
      "stateMutability": "nonpayable",
      "type": "function"
    }
  ],
  "bytecode": {
    "object": "0x608060405234801561001057600080fd5b50610903806100206000396000f3fe608060405234801561001057600080fd5b506004361061002b5760003560e01c8063eeef036714610030575b600080fd5b61004361003e366004610100565b61005f565b6040516001600160a01b03909116815260200160405180910390f35b6000808585604051610070906100f3565b6001600160a01b0390921682526020820152604001604051809103906000f0801580156100a1573d6000803e3d6000fd5b509050809150816001600160a01b03167f24985702a6ef204bac48f031bf149ed84e7cd1695f4c973b48a4b442de40188985856040516100e2929190610195565b60405180910390a250949350505050565b610709806101c583390190565b6000806000806060858703121561011657600080fd5b84356001600160a01b038116811461012d57600080fd5b935060208501359250604085013567ffffffffffffffff8082111561015157600080fd5b818701915087601f83011261016557600080fd5b81358181111561017457600080fd5b88602082850101111561018657600080fd5b95989497505060200194505050565b60208152816020820152818360408301376000818301604090810191909152601f909201601f1916010191905056fe60c060405234801561001057600080fd5b5060405161070938038061070983398101604081905261002f91610045565b6001600160a01b0390911660805260a05261007f565b6000806040838503121561005857600080fd5b82516001600160a01b038116811461006f57600080fd5b6020939093015192949293505050565b60805160a0516106596100b060003960008181606b01526101ee01526000818160c8015261029e01526106596000f3fe608060405234801561001057600080fd5b506004361061004c5760003560e01c80632e7ba6ef146100515780632eb4a7ab146100665780639e34070f146100a0578063fc0c546a146100c3575b600080fd5b61006461005f3660046104c8565b610102565b005b61008d7f000000000000000000000000000000000000000000000000000000000000000081565b6040519081526020015b60405180910390f35b6100b36100ae36600461056d565b6103b4565b6040519015158152602001610097565b6100ea7f000000000000000000000000000000000000000000000000000000000000000081565b6040516001600160a01b039091168152602001610097565b61010b856103b4565b1561016e5760405162461bcd60e51b815260206004820152602860248201527f4d65726b6c654469737472696275746f723a2044726f7020616c72656164792060448201526731b630b4b6b2b21760c11b60648201526084015b60405180910390fd5b60408051602081018790526bffffffffffffffffffffffff19606087901b1691810191909152605481018490526000906074016040516020818303038152906040528051906020012090506102198383808060200260200160405190810160405280939291908181526020018383602002808284376000920191909152507f000000000000000000000000000000000000000000000000000000000000000092508591506103f59050565b61026f5760405162461bcd60e51b815260206004820152602160248201527f4d65726b6c654469737472696275746f723a20496e76616c69642070726f6f666044820152601760f91b6064820152608401610165565b6102788661040b565b60405163a9059cbb60e01b81526001600160a01b038681166004830152602482018690527f0000000000000000000000000000000000000000000000000000000000000000169063a9059cbb906044016020604051808303816000875af11580156102e7573d6000803e3d6000fd5b505050506040513d601f19601f8201168201806040525081019061030b9190610586565b6103635760405162461bcd60e51b815260206004820152602360248201527f4d65726b6c654469737472696275746f723a205472616e73666572206661696c60448201526232b21760e91b6064820152608401610165565b604080518781526001600160a01b03871660208201529081018590527f4ec90e965519d92681267467f775ada5bd214aa92c0dc93d90a5e880ce9ed0269060600160405180910390a1505050505050565b6000806103c3610100846105be565b905060006103d3610100856105d2565b60009283526020839052604090922054600190921b9182169091149392505050565b6000826104028584610449565b14949350505050565b6000610419610100836105be565b90506000610429610100846105d2565b6000928352602083905260409092208054600190931b9092179091555050565b600081815b845181101561048e5761047a8286838151811061046d5761046d6105e6565b6020026020010151610496565b915080610486816105fc565b91505061044e565b509392505050565b60008183106104b25760008281526020849052604090206104c1565b60008381526020839052604090205b9392505050565b6000806000806000608086880312156104e057600080fd5b8535945060208601356001600160a01b03811681146104fe57600080fd5b935060408601359250606086013567ffffffffffffffff8082111561052257600080fd5b818801915088601f83011261053657600080fd5b81358181111561054557600080fd5b8960208260051b850101111561055a57600080fd5b9699959850939650602001949392505050565b60006020828403121561057f57600080fd5b5035919050565b60006020828403121561059857600080fd5b815180151581146104c157600080fd5b634e487b7160e01b600052601260045260246000fd5b6000826105cd576105cd6105a8565b500490565b6000826105e1576105e16105a8565b500690565b634e487b7160e01b600052603260045260246000fd5b60006001820161061c57634e487b7160e01b600052601160045260246000fd5b506001019056fea264697066735822122081ce6193e972cb8d769759ab0b2e8e9fae8f51816a3cb225770f22cca92e246064736f6c634300080f0033a264697066735822122072c179549c4304d6fe93cff48ca1a592021eb6b92cbe1d83be972d48da61fc1c64736f6c634300080f0033",
    "linkReferences": {}
  },
  "methodIdentifiers": {
    "createDistributor(address,bytes32,string)": "eeef0367"
  },
  "id": 14
}