{
  "abi": [
    {
      "inputs": [],
      "stateMutability": "nonpayable",
      "type": "constructor"
    },
    {
      "anonymous": false,
      "inputs": [
        {
          "indexed": true,
          "internalType": "address",
          "name": "distributor",
          "type": "address"
        },
        {
          "indexed": false,
          "internalType": "string",
          "name": "incentiveId",
          "type": "string"
        }
      ],
      "name": "DistributorSetup",
      "type": "event"
    },
    {
      "inputs": [
        {
          "internalType": "address",
          "name": "_tokenAddress",
          "type": "address"
        },
        {
          "internalType": "bytes32",
          "name": "_merketRoot",
          "type": "bytes32"
        },
        {
          "internalType": "uint256",
          "name": "_total",
          "type": "uint256"
        },
        {
          "internalType": "string",
          "name": "_incentiveId",
          "type": "string"
        }
      ],
      "name": "createDistributor",
      "outputs": [
        {
          "internalType": "address",
          "name": "distributorAddress",
          "type": "address"
        }
      ],
      "stateMutability": "nonpayable",
      "type": "function"
    }
  ],
  "bytecode": {
    "object": "0x608060405234801561001057600080fd5b50610a3d806100206000396000f3fe608060405234801561001057600080fd5b506004361061002b5760003560e01c806310c38bb014610030575b600080fd5b61004361003e36600461010a565b61005f565b6040516001600160a01b03909116815260200160405180910390f35b600080868686604051610071906100fd565b6001600160a01b03909316835260208301919091526040820152606001604051809103906000f0801580156100aa573d6000803e3d6000fd5b509050809150816001600160a01b03167f24985702a6ef204bac48f031bf149ed84e7cd1695f4c973b48a4b442de40188985856040516100eb9291906101ac565b60405180910390a25095945050505050565b61082c806101dc83390190565b60008060008060006080868803121561012257600080fd5b85356001600160a01b038116811461013957600080fd5b94506020860135935060408601359250606086013567ffffffffffffffff8082111561016457600080fd5b818801915088601f83011261017857600080fd5b81358181111561018757600080fd5b89602082850101111561019957600080fd5b9699959850939650602001949392505050565b60208152816020820152818360408301376000818301604090810191909152601f909201601f1916010191905056fe60e060405234801561001057600080fd5b5060405161082c38038061082c83398101604081905261002f9161004c565b6001600160a01b0390921660805260a05260c0526000805561008f565b60008060006060848603121561006157600080fd5b83516001600160a01b038116811461007857600080fd5b602085015160409095015190969495509392505050565b60805160a05160c05161075b6100d160003960008181606c015261014a01526000818160bb01526102bb01526000818161010e015261036b015261075b6000f3fe608060405234801561001057600080fd5b50600436106100625760003560e01c80632ddbd13a146100675780632e7ba6ef146100a15780632eb4a7ab146100b65780639e34070f146100dd578063e834a83414610100578063fc0c546a14610109575b600080fd5b61008e7f000000000000000000000000000000000000000000000000000000000000000081565b6040519081526020015b60405180910390f35b6100b46100af3660046105aa565b610148565b005b61008e7f000000000000000000000000000000000000000000000000000000000000000081565b6100f06100eb36600461064f565b610481565b6040519015158152602001610098565b61008e60005481565b6101307f000000000000000000000000000000000000000000000000000000000000000081565b6040516001600160a01b039091168152602001610098565b7f000000000000000000000000000000000000000000000000000000000000000060005411156101d45760405162461bcd60e51b815260206004820152602c60248201527f4d65726b6c654469737472696275746f723a20546f74616c20636c61696d656460448201526b206d617820616c726561647960a01b60648201526084015b60405180910390fd5b6101dd85610481565b1561023b5760405162461bcd60e51b815260206004820152602860248201527f4d65726b6c654469737472696275746f723a2044726f7020616c72656164792060448201526731b630b4b6b2b21760c11b60648201526084016101cb565b60408051602081018790526bffffffffffffffffffffffff19606087901b1691810191909152605481018490526000906074016040516020818303038152906040528051906020012090506102e68383808060200260200160405190810160405280939291908181526020018383602002808284376000920191909152507f000000000000000000000000000000000000000000000000000000000000000092508591506104c29050565b61033c5760405162461bcd60e51b815260206004820152602160248201527f4d65726b6c654469737472696275746f723a20496e76616c69642070726f6f666044820152601760f91b60648201526084016101cb565b610345866104d8565b60405163a9059cbb60e01b81526001600160a01b038681166004830152602482018690527f0000000000000000000000000000000000000000000000000000000000000000169063a9059cbb906044016020604051808303816000875af11580156103b4573d6000803e3d6000fd5b505050506040513d601f19601f820116820180604052508101906103d89190610668565b6104305760405162461bcd60e51b815260206004820152602360248201527f4d65726b6c654469737472696275746f723a205472616e73666572206661696c60448201526232b21760e91b60648201526084016101cb565b604080518781526001600160a01b03871660208201529081018590527f4ec90e965519d92681267467f775ada5bd214aa92c0dc93d90a5e880ce9ed0269060600160405180910390a1505050505050565b600080610490610100846106b6565b905060006104a0610100856106ca565b60009283526001602081905260409093205492901b9182169091149392505050565b6000826104cf858461052b565b14949350505050565b60006104e6610100836106b6565b905060006104f6610100846106ca565b60008381526001602081905260408220805482851b17905581549293509181906105219084906106de565b9091555050505050565b600081815b84518110156105705761055c8286838151811061054f5761054f6106f6565b6020026020010151610578565b9150806105688161070c565b915050610530565b509392505050565b60008183106105945760008281526020849052604090206105a3565b60008381526020839052604090205b9392505050565b6000806000806000608086880312156105c257600080fd5b8535945060208601356001600160a01b03811681146105e057600080fd5b935060408601359250606086013567ffffffffffffffff8082111561060457600080fd5b818801915088601f83011261061857600080fd5b81358181111561062757600080fd5b8960208260051b850101111561063c57600080fd5b9699959850939650602001949392505050565b60006020828403121561066157600080fd5b5035919050565b60006020828403121561067a57600080fd5b815180151581146105a357600080fd5b634e487b7160e01b600052601260045260246000fd5b634e487b7160e01b600052601160045260246000fd5b6000826106c5576106c561068a565b500490565b6000826106d9576106d961068a565b500690565b600082198211156106f1576106f16106a0565b500190565b634e487b7160e01b600052603260045260246000fd5b60006001820161071e5761071e6106a0565b506001019056fea2646970667358221220e4d9d8e7eb96393bfc58fd913be0eee63758074125001e2f78bf0db7e59daaa764736f6c634300080f0033a2646970667358221220d3e2e38f05cfcfa1a5d37384786fd61c9aa014aac0277da7cabb7f7b91def22a64736f6c634300080f0033",
    "linkReferences": {}
  },
  "methodIdentifiers": {
    "createDistributor(address,bytes32,uint256,string)": "10c38bb0"
  },
  "id": 14
}